:020000040800F2
:10000000603000209D010008410C0008C90B000869
:10001000290C0008370500084D15000800000000F5
:1000200000000000000000000000000005010008C2
:10003000D90900080000000049010008450F000828
:10004000B7010008B7010008B7010008B7010008B0
:10005000B7010008B7010008B7010008B7010008A0
:10006000B7010008B7010008B7010008B701000890
:10007000B7010008B7010008B7010008B701000880
:10008000B7010008B7010008B7010008B701000870
:1000900075140008B7010008B7010008B70100088F
:1000A000B7010008B7010008B7010008B701000850
:1000B000B7010008B7010008B7010008B701000840
:1000C000B7010008B7010008B7010008B701000830
:1000D000B7010008B7010008BD120008B701000809
:1000E000B7010008B7010008B7010008DFF810D019
:1000F00000F08EF800480047C1170008AFF30080F9
:1001000060300020224B19680868B0E8F00F80F3D7
:100110000988BFF36F8F4FF0000080F311884EF015
:100120000D0E70470000000006480068006880F36C
:10013000088862B661B6BFF34F8FBFF36F8F00DFE1
:1001400000BF00BF08ED00E0EFF30980BFF36F8F41
:100150000F4B1A6820E9F00F106008B54FF05000FF
:1001600080F31188BFF34F8FBFF36F8F02F08AFDCA
:100170004FF0000080F31188BDE808401968086856
:10018000B0E8F00F80F30988BFF36F8F704700BFAE
:1001900018000020EFF305807047000006488047F4
:1001A00006480047FEE7FEE7FEE7FEE7FEE7FEE75C
:1001B000FEE7FEE7FEE7FEE7550F0008ED0000084A
:1001C00040EA01039B0703D009E008C9121F08C0D9
:1001D000042AFAD203E011F8013B00F8013B521E59
:1001E000F9D2704730B50B46014600202022012489
:1001F00009E021FA02F59D4205D303FA02F5491BF5
:1002000004FA02F52844151EA2F10102F1DC30BD0A
:10021000064C074D06E0E06840F0010394E8070053
:1002200098471034AC42F6D3FFF764FFE03900087A
:10023000003A000800B591B001214FF4027000F0BF
:100240006FFD0121084600F04BFD4FF4004000F027
:100250003BFD0220ADF82C0000208DF82F000BA9EB
:100260002E4800F0BAFB2E4800F076F800200C90E3
:100270008DF8340001208DF835004FF460200E9089
:1002800000200F9001208DF840000CA9244800F0B8
:10029000A5F8072301220921214800F0C7F8012110
:1002A0001F4800F043F81E484C3000901D48019054
:1002B000002002901E2003900020049080200590D2
:1002C000400006908000079020200890C00109900F
:1002D00000200A906946144800F060FB0121124892
:1002E00000F050FB01210E4800F02BF80C4800F004
:1002F000F9F800BF0A4800F067F80028FAD108486A
:1003000000F000F900BF064800F054F80028FAD1C8
:100310000121034800F0EBF811B000BD000C0140D2
:1003200000240140042C00200800024021B1826812
:1003300042F00102826003E0826822F001028260E2
:10034000704721B1826842F48072826003E0826863
:1003500022F480728260704710B5044612488442CD
:1003600008D10121401500F0EBFC0021601500F0E0
:10037000E7FC17E00D48844208D10121001500F088
:10038000DFFC0021201500F0DBFC0BE00848844274
:1003900008D10121C80300F0D3FC00214FF4004034
:1003A00000F0CEFC10BD00000024014000280140F8
:1003B000003C0140014600208A6802F004020AB1B4
:1003C000012000E000207047014600208A6802F00A
:1003D00008020AB1012000E00020704730B5024653
:1003E0000020002350680F4C20400D790C6844EA2F
:1003F00005242043506090680B4C2040D1E9025402
:100400002C434D7944EA450420439060D06A20F49F
:1004100070000C7C641EE4B2234340EA0350D062B7
:1004200030BD0000FFFEF0FFFDF7F1FFF0B5044620
:100430000D4600200021092D11DDE068A5F10A0616
:1004400006EB4607072606FA07F18843A5F10A06D8
:1004500006EB460603FA06F10843E0600CE020696B
:1004600005EB4507072606FA07F1884305EB450625
:1004700003FA06F108432061072A0FDA606B561E63
:1004800006EB86071F2606FA07F18843561E06EB81
:10049000860605FA06F10843606322E00D2A0FDAAA
:1004A000206BD61F06EB86071F2606FA07F1884346
:1004B000D61F06EB860605FA06F10843206310E016
:1004C000E06AA2F10D0606EB86071F2606FA07F181
:1004D0008843A2F10D0606EB860605FA06F10843ED
:1004E000E062F0BD816841F008018160704721B190
:1004F000826842F4A002826003E0826822F4A002D3
:1005000082607047816841F004018160704710B5D6
:100510004FF4407000F0CEFB01F016F94FF4E130DB
:1005200000F0C4FF00F052FB00F044FD00F01EF9A3
:10053000FFF780FE10BD00BFFEE7000010B50021F0
:10054000837A012202FA03F13D4A126842F0010265
:100550003B4B1A603A4A1C3212688A43384B1C33B0
:100560001A60027BCAB9364A0C3212688A43344B8D
:100570000C331A604288C38842EA0343304A40324F
:10058000847A42F834300288838842EA03432C4A52
:100590004032847A02EBC4025360027B012A19D1F3
:1005A000274A0C3212680A43254B0C331A604288E2
:1005B000038842EA0343224A4032847A42F83430C4
:1005C000C288838842EA03431D4A4032847A02EBA0
:1005D000C4025360C27A3AB9194A121D12688A439A
:1005E000174B1B1D1A6006E0154A121D12680A43BC
:1005F000134B1B1D1A60028932B9114A143212685A
:100600008A430F4B14331A600289012A06D10C4A1F
:10061000143212680A430A4B14331A60427B012ACF
:1006200006D1074A1C3212680A43054B1C331A6074
:10063000034A126822F00102014B1A6010BD00004B
:10064000006600401AB143690B43436102E043690D
:100650008B434361704730B5024600200023146885
:1006600024F002041460146844F00104146000E0F3
:100670005B1C546804F001041CB94FF6FF74A342DC
:10068000F6D1546804F001040CB900206CE08C79B8
:10069000012C04D1146844F08004146003E0146851
:1006A00024F080041460CC79012C04D1146844F047
:1006B0004004146003E0146824F0400414600C7AD1
:1006C000012C04D1146844F02004146003E0146881
:1006D00024F0200414604C7A012C04D1146844F0F6
:1006E0001004146003E0146824F0100414608C7A81
:1006F000012C04D1146844F00804146003E0146869
:1007000024F008041460CC7A012C04D1146844F05D
:100710000404146003E0146824F0040414608C786A
:10072000A407CD7844EA05640D7944EA05444D797F
:1007300044EA05540D886D1E2C43D461146824F0DE
:1007400001041460002300E05B1C546804F0010401
:100750001CB14FF6FF74A342F6D1546804F00104B3
:100760000CB1002000E0012030BD000000B589B0D0
:100770000121042000F0D4FA0121480600F0C0FA5B
:100780000121084600F0CCFA01214FF4EA1000F0F4
:10079000AFF94FF40070ADF8200003208DF822006F
:1007A00018208DF8230008A9304800F016F94FF4FE
:1007B0008070ADF8200048208DF8230008A92B4850
:1007C00000F00BF900208DF81A008DF81B008DF851
:1007D0001C0001208DF81D0000208DF81E008DF8F2
:1007E0001F008DF816008DF8170008208DF81800EE
:1007F00007208DF819000220ADF8140005A91C4847
:10080000FFF729FF00208DF80E0001208DF80F0062
:1008100000208DF81000ADF8040044F22000ADF87F
:1008200006000020ADF80800ADF80A00ADF80C0095
:1008300001208DF8110001A8FFF780FE012202219E
:100840000B48FFF7FFFE14208DF8000001208DF803
:10085000010000208DF8020001208DF80300684699
:1008600000F0F0F9002009B000BD0000000C0140CC
:100870000064004010B500F5D87303EB01131B684A
:1008800003F004031372137A53B900F5D87303EB22
:1008900001131B6840F2FF7404EA5353136009E02C
:1008A00000F5D87303EB01131B686FF0604404EA92
:1008B000D303536000F5D87303EB01131B6803F0F7
:1008C0000203537200F5D87303EB01135B6803F066
:1008D0000F03937200F5D87303EB01135B681B0AD7
:1008E000D37400F5D87303EB01139B68D37200F542
:1008F000D87303EB01139B681C0A147300F5D873BB
:1009000003EB01139B681C0C547300F5D87303EBC5
:1009100001139B681B0E937300F5D87303EB01134F
:10092000DB68D37300F5D87303EB0113DB681C0A93
:10093000147400F5D87303EB0113DB681C0C5474BA
:1009400000F5D87303EB0113DB681B0E937421B918
:10095000C36843F02003C36003E0036943F020034E
:10096000036110BD08B502F0A3FD009007E000F0A0
:1009700009F9034908600121684601F055FFF6E7CF
:10098000B400002021B1026842F00102026004E0DC
:1009900002684FF6FE731A400260704710B50022DD
:1009A000026847F6F0739A430C6A8B6823430C691C
:1009B00023434C6923438C692343CC6923434C6A0A
:1009C00023438C6A23431A430260CB6843600B685D
:1009D00083604B68C36010BD70472DE9F04102464B
:1009E00000250026002000230024002791F803C0E2
:1009F0000CF00F0591F803C00CF0100CBCF1000FC7
:100A000003D091F802C04CEA050591F800C0BCF192
:100A1000000F31D0146800202BE04FF0010C0CFACD
:100A200000F3B1F800C00CEA03069E4220D1830017
:100A30004FF00F0C0CFA03F7BC4305FA03FC4CEA29
:100A4000040491F803C0BCF1280F06D14FF0010C4B
:100A50000CFA00FCC2F814C00AE091F803C0BCF123
:100A6000480F05D14FF0010C0CFA00FCC2F810C081
:100A7000401C0828D1D31460B1F800C0BCF1FF0FAE
:100A800034DD546800202EE000F1080C4FF001081E
:100A900008FA0CF3B1F800C00CEA03069E4221D11B
:100AA00083004FF00F0C0CFA03F7BC4305FA03FC6C
:100AB0004CEA040491F803C0BCF1280F05D100F101
:100AC000080C08FA0CF8C2F8148091F803C0BCF1C5
:100AD000480F07D100F1080C4FF0010808FA0CF894
:100AE000C2F81080401C0828CED35460BDE8F081C5
:100AF000F0B50A46002300240021002500F000463E
:100B0000B6F1004F02D11D4EF16901E01B4E716834
:100B1000C0F3034583B200F44016B6F5401F08D178
:100B200021F07061154E766826F07066134F7E6076
:100B300012E000F48016B6F5801F06D1032606FAEF
:100B400005F4A14341F0706106E0460D360103FA59
:100B500006F6B14341F0706122B1460D360103FA49
:100B600006F6314300F00046B6F1004F02D1034EC5
:100B7000F16101E0014E7160F0BD00000000014034
:100B80000161704730B50022002105E00D4B33F8BC
:100B900011301A444B1CD9B21E29F7DB1E2392FBDD
:100BA000F3F240F6E44402FB04F3DC1703EB1454C5
:100BB0002413A4F6C4144FF47A756C43B92594FB3E
:100BC000F5F030BD042C002000BFFEE708B5012180
:100BD000082000F0A5F86020ADF8000010208DF886
:100BE000030003208DF8020069460648FFF7F5FE72
:100BF00020210448FFF7C4FF40210248FFF7C0FF4F
:100C000008BD0000000C01400BE00648006808B970
:100C1000012000E00020034908604FF4FA7001F061
:100C2000C9FDF2E79481214200BFFEE708B502F05A
:100C30003FFC009003E00521684601F0F5FDFAE76E
:100C40007047000070B5002100230F22C47804B360
:100C5000154C246804F4E064C4F5E064210AC1F191
:100C60000403CA40447804FA03F184781440214311
:100C700009010E4C0678A155047804F01F050124E3
:100C8000AC4005786D11AD0005F1E025C5F80041D7
:100C900009E0047804F01F050124AC40044D0678F7
:100CA000761145F8264070BD0CED00E000E400E050
:100CB00080E100E002490143024A116070470000F0
:100CC0000000FA050CED00E001460020034A5068E0
:100CD00020F440400843506070470000001002407C
:100CE00029B1064A52690243044B5A6104E0034A9F
:100CF00052698243014B5A61704700000010024064
:100D000029B1064AD2690243044BDA6104E0034A7E
:100D1000D2698243014BDA61704700000010024043
:100D200029B1064A92690243044B9A6104E0034ADE
:100D300092698243014B9A617047000000100240A3
:100D400029B1064AD2680243044BDA6004E0034A40
:100D5000D2688243014BDA60704700000010024005
:100D600030B500210022002400232D4D6D6805F0D0
:100D70000C0121B1042905D0082923D105E0294D12
:100D8000056022E0274D05601FE0254D6D6805F4E4
:100D90007012234D6D6805F48034022505EB9242F4
:100DA0001CB9214D554305600BE01D4D6D6805F4E0
:100DB00000351DB11C4D5543056002E0194D5543EA
:100DC000056002E0174D056000BF00BF144D6D685F
:100DD00005F0F0010909154D6B5C0568DD404560C3
:100DE0000F4D6D6805F4E061090A104D6B5C4568B4
:100DF000DD4085600A4D6D6805F46051C90A0B4DF0
:100E00006B5C4568DD40C560054D6D6805F440418B
:100E1000890B074D6B5CC568B5FBF3F5056130BD0B
:100E20000010024000127A0000093D008C000020F2
:100E30009C00002010B500F001F810BD0CB500209A
:100E4000019000903348006840F4803031490860D8
:100E500000BF3048006800F4003000900198401C4A
:100E60000190009818B90198B0F5A06FF1D1294808
:100E7000006800F4003010B10120009001E0002073
:100E800000900098012843D12348006840F01000EA
:100E9000214908600846006820F003000860084601
:100EA000006840F0020008601A484068194948602C
:100EB0000846406848600846406840F480604860E2
:100EC0000846406820F47C1048600846406840F4BA
:100ED000E81048600846006840F08070086000BF75
:100EE0000C48006800F000700028F9D009484068FC
:100EF00020F00300074948600846406840F00200BF
:100F0000486000BF0348406800F00C000828F9D191
:100F10000CBD00000010024000200240042808D14F
:100F20004FF0E021096941F004014FF0E022116126
:100F300007E04FF0E021096921F004014FF0E022C1
:100F40001161704710B502F0A3FA012801D001F039
:100F50003DFF10BD10B51348006840F00100114975
:100F6000086008464068104908400E494860084635
:100F700000680E4908400B4908600846006820F4E4
:100F8000802008600846406820F4FE0048604FF466
:100F90001F008860FFF74EFF4FF0006004490860B3
:100FA00010BD0000001002400000FFF8FFFFF6FE39
:100FB00008ED00E000B589B00121C802FFF7B0FEDE
:100FC00001210420FFF7ACFE4FF44070ADF804009F
:100FD00018208DF8070003208DF8060001A923488A
:100FE000FFF7FBFC4FF47A70ADF81C004720ADF81A
:100FF00018000020ADF81E00ADF81A0006A91C4824
:1010000000F00AF97020ADF808000120ADF80A00E0
:101010000020ADF810004FF6FF70ADF80E0002A9E9
:10102000134800F043F80821114800F08BF87020B5
:10103000ADF808000120ADF80A000020ADF810005E
:101040004FF6FF70ADF80E0002A9094800F084F8D1
:101050000821074800F0D2F80121054800F00AF8FD
:101060000121034800F012F809B000BD000801405A
:10107000002C014021B1028842F00102028004E00C
:1010800002884FF6FE731A400280704731B1B0F803
:10109000442042F40042A0F8442005E0B0F8442087
:1010A000C2F30E02A0F844207047000070B500247F
:1010B00000220023058C4FF6FE7635400584028C15
:1010C0008388048B4FF68F752C40B51E2C400D88FD
:1010D0002C43751E2A400D892A434D882A43144DFE
:1010E000A8420BD0134DA84208D0134DA84205D0FA
:1010F000124DA84202D0124DA84213D14FF6F775F7
:101100002A404D892A434FF6FB752A408D882A4391
:101110004FF6FF652B404FF6FF552B408D892B4333
:10112000CD892B4383800483CD888586028470BD5E
:10113000002C0140003401400040014000440140C7
:10114000004801400A460021018B4FF6F773194011
:10115000114301837047000070B500240022002372
:10116000058C4FF6EF7635400584028C8388048B1E
:1011700048F6FF752C404FF6FF452C400D884FF682
:10118000FF7606EA05252C434FF6DF752A400D89C8
:1011900006EA05152A434D8806EA05152A43154D2A
:1011A000A84202D0144DA8421DD14FF67F752A40A7
:1011B0004D894FF6FF7606EA05152A434FF6BF75AF
:1011C0002A408D8806EA05152A434FF6FF352B4045
:1011D0004FF2FF752B408D8906EA85052B43CD899B
:1011E00006EA85052B4383800483CD880587028426
:1011F00070BD0000002C0140003401400A4600216F
:10120000018B4FF2FF7319404FF6FF7303EA02237D
:101210001943018370470000002202881D4B984249
:101220000ED01D4B98420BD0B0F1804F08D01B4B15
:10123000984205D01A4B984202D01A4B984204D1DA
:101240004FF68F731A404B881A43174B984207D0BA
:10125000164B984204D04FF6FF431A40CB881A43EE
:1012600002808B8883850B8803850A4B98420BD0BC
:10127000094B984208D00E4B984205D00D4B98422E
:1012800002D00D4B984201D10B7A03860123838251
:1012900070470000002C0140003401400004004071
:1012A00000080040000C0040001000400014004006
:1012B00000400140004401400048014010B540F2A8
:1012C0002551044800F014F818B1024800F0CCF899
:1012D000C4B210BD0044004021B1828942F40052E2
:1012E000828104E082894DF6FF731A408281704743
:1012F00070B50246002400230025002040F66A163F
:10130000B14200D100BFC1F3421501F01F03012615
:1013100006FA03F3012D02D19689334006E0022D2F
:1013200002D1168A334001E0968A33400C1201261E
:1013300006FA04F41688344013B10CB1012000E021
:10134000002070BDF0B503460024002600250020D3
:1013500040F66A17B94200D100BF1846C1F34214E3
:1013600001F01F06012707FA06F5012C01D10C3008
:1013700004E0022C01D1103000E014301AB10768EB
:101380002F43076002E00768AF430760F0BD00002D
:101390002DE9F04786B005460E460024A24600BF60
:1013A000A1460027B08900B100BF2F462C8A4CF619
:1013B000FF700440F08804432C82AC894EF6F31091
:1013C0000440B08831890843718908430443AC81E3
:1013D000AC8A4FF6FF400440B0890443AC8201A8B8
:1013E000FFF7BEFC1F48874202D1DDF810A001E0E4
:1013F000DDF80CA0A88900F4004040B10AEBCA0057
:1014000000EB0A1031684900B0FBF1F807E00AEB85
:10141000CA0000EB0A1031688900B0FBF1F86420C3
:10142000B8FBF0F004012009642101FB1089A889B0
:1014300000F4004040B1322000EBC900B0FBF1F0F5
:1014400000F00700044308E0322000EB091064219B
:10145000B0FBF1F000F00F0004432C8106B0BDE8B2
:10146000F08700000038014001468888C0F308007A
:101470007047000010B586B0002401AA0021094879
:10148000FFF7F8F900BF09E00DF10F00005D9DF8CE
:101490001710054A02EBC1010855641C082CF3DB48
:1014A00006B010BD00640040402C002010B586B08E
:1014B000044601210420FFF733FC01214804FFF713
:1014C0002FFC0420ADF8140003208DF8160018201E
:1014D0008DF8170005A91B48FFF77FFA0820ADF823
:1014E000140004208DF8170005A91648FFF775FAB7
:1014F00026208DF8000006208DF8010001208DF8CF
:1015000003006846FFF79EFB01940020ADF8080039
:10151000ADF80A00ADF80C00ADF810000C20ADF8E5
:101520000E0001A90848FFF733FF012240F22551C0
:101530000548FFF707FF01210348FFF7CDFE06B07E
:1015400010BD0000000801400044004000BFFEE75D
:101550000FB4054B10B503A9044A029800F018F81F
:1015600010BC5DF814FB0000A5170008A4000020C3
:1015700002E008C8121F08C1002AFAD1704770475C
:10158000002001E001C1121F002AFBD170470000BA
:101590002DE9FF4F8BB09A460F460546002606E020
:1015A00025280BD052460D9990476D1C761C287843
:1015B0000028F5D10FB03046BDE8F08F0024A046DA
:1015C0000122604900E0044315F8013F203B02FA84
:1015D00003F00842F7D128782E2817D115F8010F0B
:1015E00044F004042A280ED06FF02F022878A0F1CE
:1015F000300109290AD808EB880102EB410100EB10
:1016000001086D1CF2E757F8048B6D1C28786928D7
:101610003ED006DC0028CDD063280BD0642804D14E
:1016200036E0732810D075284BD052460D9990475C
:10163000761C85E017F8040B8DF8000000208DF86B
:101640000100E946012003E057F8049B4FF0FF300A
:1016500061074FF0000401D40AE0641C44450DDA30
:101660008442FADB19F804100029F6D106E0641C64
:101670008442FCDB19F804100029F8D1264404E068
:1016800019F8010B52460D999047641EF8D257E0A5
:1016900001CF4FF00A0B002802DA40422D2102E070
:1016A000210504D52B218DF82410012103E0E10749
:1016B00005D02021F7E70DF1200908910CE0002169
:1016C000F9E701CF4FF00A0BF9E75946FEF78AFD1B
:1016D00001F1300209F8012D0028F6D1ADEB090027
:1016E00000F1200B600701D44FF00108D84502DD5E
:1016F000A8EB0B0000E000208046002406E009A8CB
:101700005246005D0D999047641C761C08988442EF
:10171000F5DB04E0302052460D999047761CB8F175
:101720000001A8F10108F5DC05E019F8010B5246AB
:101730000D999047761CBBF10001ABF1010BF4DC75
:101740006D1C34E70928010010B50420FFF7E6FB03
:10175000104800681049B0FBF1F0104908700D48BE
:1017600000680D49B0FBF1F44FF47A704443012056
:101770000B4908804FF0E020006940F002004FF074
:10178000E021086108464461006940F001000861F9
:1017900010BD00000400002040420F00A000002007
:1017A000A200002000BF054A128802F04002002A71
:1017B000F9D0C2B2014B1B1D1A8070470044004093
:1017C0001CB5FEF7A4FE0748012100238022CDE9C5
:1017D000001005A1074801F02BFE01F0F5F90020EB
:1017E0001CBD00000000002073746172745F74619E
:1017F000736B0000B92300082DE9F04105460E4641
:101800001C4807681C480068001D00F015FE50B910
:101810001948006890F82C10012088401749096881
:10182000814316480160681C38B936B11248016816
:10183000091D134800F03EFE1AE07C190E480068AE
:101840004460BC4207D20C480168091D0D4800687D
:1018500000F016FE0CE008480168091D0A480068FF
:1018600000F00EFE09480068844201D20748046077
:10187000BDE8F0812C00002018000020300000207E
:10188000C8030020200000201C0000204800002089
:1018900010B5044600F01AFE23480068401C224997
:1018A00008602248006840B9204804600846006883
:1018B00001280DD100F0E2F90AE01D48006838B9AE
:1018C0001A480068C06AE16A884201D81748046073
:1018D00018480068401C1749086094F82C10012033
:1018E000884015490968084313490860E16A01EB1B
:1018F0008101124A02EB8100211D00F0DBFD00F0A6
:1019000029FE0B48006868B108480068C06AE16AAF
:10191000884207D24FF0805009490860BFF34F8FCB
:10192000BFF36F8F10BD00002800002018000020BA
:10193000340000204400002030000020F800002087
:1019400004ED00E010B500F0C1FD10480068D0B90A
:101950000F4800F085FD0F4800F082FD0C480E494D
:1019600008600C480D49086000221021052001F094
:1019700047FA064908600846006820B108A10348F4
:10198000006800F0DBFE00F0E5FD10BD5C0000200B
:10199000DC030020F0030020540000205800002049
:1019A000546D72510000000070B523E001F062F93F
:1019B0001348006808B9012000E00020054601F046
:1019C000F3FEBDB900F082FD0D48C068C468201D5B
:1019D00000F032FD0B480068401E0A4908600A48C2
:1019E0000068401E0849086000F0B4FD204600F081
:1019F00060F800BF044800680028D7D170BD00001F
:101A0000B4030020280000202400002070B5044604
:101A10000D46206C70B1216CE0680844E06061689C
:101A2000E068884201D32068E0602846226CE168C3
:101A3000FEF7C6FB70BD2DE9F04104460F46154682
:101A40004FF00008A66B206C40B9206860BB60684E
:101A500001F0E4FD80460020606025E07DB9394654
:101A6000226CA068FEF7ACFB216CA0680844A06063
:101A7000D4E90110884217D32068A06014E03946E9
:101A8000226CE068FEF79CFB216CE068401AE06085
:101A90002168E068884203D2216C6068401AE060E7
:101AA000022D01D106B1761E701CA0634046BDE830
:101AB000F08110B50446206B00F084FD204600F054
:101AC00081FD10BD0146084A126812680AB9012258
:101AD00000E000220A600A6822B9034A1268D2684C
:101AE000106800E0002070475400002030B54FF42B
:101AF0002053174800F007042CB1C01D20F0070048
:101B0000134C041B1B1B0246124C22600024114D77
:101B10006C60D018083820F007000F4C20600024BB
:101B20000D4D2D686C600C4D2D682C601146441ACB
:101B30004C60094C24680C60084D4C682C60084DC2
:101B40004C682C604FF00044064D2C6030BD000006
:101B500004040020680000207000002078000020AD
:101B6000740000207C00002000BFFFF71DFF064826
:101B700000680128F9D94FF0805004490860BFF38C
:101B80004F8FBFF36F8FF0E7F800002004ED00E007
:101B90002DE9F04106460D4617469846069C0DB9BC
:101BA000246000E02760E66325640121204601F0FF
:101BB00045FABDE8F08100002DE9FF5F81460F4640
:101BC0009246DDE90E6B109CAAF10100216B01EB3E
:101BD000800828F0070808F0070008B9012000E095
:101BE000002028B940F22B321BA120A0FFF7B0FC47
:101BF000002507E0795D04F134004155785D00B9B6
:101C000002E06D1C102DF5D300BF002143200155CB
:101C1000202E00D31F26E66266640020A064201DEB
:101C200000F02BFC04F1180000F027FC2461C6F141
:101C30002000A06164620020E06484F850004946FE
:101C40004046039A00F0A6FB2060BBF1000F01D0D4
:101C5000CBF80040BDE8FF9F2E2E5C4672656552B2
:101C6000544F535C7461736B732E63004572726FD3
:101C7000723A25732C25640D0A00000010B500246B
:101C800007E004EB84010F4A02EB810000F0E8FB5F
:101C9000641C202CF5D30C4800F0E2FB0B4800F04C
:101CA000DFFB0B4800F0DCFB0A4800F0D9FB0A48D8
:101CB00000F0D6FB04480949086004480849086058
:101CC00010BD0000F8000020780300208C030020E5
:101CD000A0030020B4030020C80300201C00002043
:101CE0002000002010B50146164800E00068036897
:101CF0008B42FBD30246436813448B4204D14368B2
:101D00004C682344436001460A464B681344046808
:101D1000A34211D10C4C03682468A34208D04B683D
:101D20000468646823444B6003681B680B6005E02B
:101D3000054B1B680B6001E003680B60884200D014
:101D4000016010BD68000020700000202DE9F04106
:101D500004460D4616461F464FF000086560246194
:101D6000B5420CD8F01BA169884202D34FF001089C
:101D700011E0211D0948006800F082FB0BE0BE4223
:101D800004D2BD4202D34FF0010804E0211D0448F3
:101D9000006800F075FB4046BDE8F0815800002067
:101DA0005400002070B5054600F090FBA86B08B900
:101DB000012400E0002400F0CDFB204670BD70B58A
:101DC000054600F083FBA86BE96B884201D1012432
:101DD00000E0002400F0BEFB204670BDF8B50546CB
:101DE0000F4613480068C068C468201D00F024FB3B
:101DF000E069012818D1A06941192B463A462046CE
:101E0000FFF7A4FF80B1002003462A460146009058
:101E1000204601F093FD06462EB94FF4027205A14B
:101E20000AA0FFF795FB00BF2046616A8847F8BD0E
:101E3000540000202E2E5C4672656552544F535C50
:101E400074696D6572732E63000000004572726FD5
:101E5000723A25732C25640D0A000000F0B587B096
:101E600070E0039800280CDA04AE2EB940F2E722A5
:101E70003AA140A0FFF76CFBD6E90020B16890477B
:101E800000BF039800285DDB059C606908B901204C
:101E900000E0002010B9201D00F0CEFA02A800F0EA
:101EA000C7F8054603980A284AD2DFE800F009057A
:101EB000072C2E4506082D2F00BF00BF00BF00BF16
:101EC0000498A269811803462A462046FFF73EFF80
:101ED000C0B12046616A8847E069012812D100201C
:101EE00000900498A169421800231946204601F089
:101EF00025FD07462FB940F2213218A11DA0FFF79A
:101F000027FB00BF1DE000BF1BE000BF0498A061DD
:101F1000A06908B1012000E0002028B94FF44E72FA
:101F20000EA114A0FFF714FBA06941192B462A4605
:101F30002046FFF70BFF04E0204600F043FB00E0E3
:101F400000BF00BF00231A4603A90E48006800F036
:101F500091FF002885D107B0F0BD00002E2E5C4611
:101F600072656552544F535C74696D6572732E636C
:101F7000000000004572726F723A25732C25640DC3
:101F80000A0000005C000020F8B505460C4600F091
:101F900071FE684600F04CF80646009820BB44B934
:101FA000B54206D801F000FC31462846FFF716FF7F
:101FB0001CE03CB10E480068006808B9012000E050
:101FC00000200446A91B22460A48006800F0CCFB0A
:101FD00001F0EAFB50B94FF0805007490860BFF3A9
:101FE0004F8FBFF36F8F01E001F0DEFBF8BD000003
:101FF000580000205C00002004ED00E00A49096858
:10200000096809B9012100E0002121B14FF0FF3139
:10201000064A116006E004490968C968C868034AAD
:1020200041681160704700001C000020480000203B
:1020300070B5044601F03CFA054607480068854241
:1020400004D200F00BF80120206001E000202060A5
:1020500001480560284670BD640000202DE9F84362
:102060002DE021480068C06805681F480068C06806
:10207000C468201D00F0E0F92046616A8847E069E5
:1020800001281CD1A0694619AE4207D966602461B7
:10209000211D1548006800F0F3F910E00020034608
:1020A0002A4601460090204601F048FC07462FB919
:1020B00040F292320DA113A0FFF74AFA00BF0A487E
:1020C0000068006808B9012000E000200028C8D09E
:1020D0000548D0F800800F480068034908600D48A3
:1020E000C0F80080BDE8F883540000202E2E5C4626
:1020F00072656552544F535C74696D6572732E63DB
:10210000000000004572726F723A25732C25640D31
:102110000A000000580000200B480068401C08B965
:10212000012000E0002020B9F42208A112A0FFF74E
:102130000FFA00BF502080F31188BFF34F8FBFF319
:102140006F8F00BF00BFFEE7800000202E2E5C4690
:1021500072656552544F535C706F727461626C6546
:102160005C525644535C41524D5F434D335C706F3B
:1021700072742E63000000004572726F723A25730C
:102180002C25640D0A00000008B500BF6846FFF763
:1021900099FC044620460099FFF7F6FEFFF75EFE25
:1021A000F4E770B5044600F091F994F9455010E059
:1021B000606A08B9012000E0002038B904F1240069
:1021C00001F098FA18B100F023FC00E003E0681E6B
:1021D00045B2002DECDC00BFFF2084F8450000F084
:1021E000B9F900F073F994F9445010E0206908B986
:1021F000012000E0002048B904F1100001F07AFA53
:1022000008B100F005FC681E45B200E001E0002DB9
:10221000ECDC00BFFF2084F8440000F09BF970BDA7
:102220002DE9F04104464FF0000800F023FD3E4840
:10223000006808B9FFF75AFC3C48006820400028B5
:102240005FD1A4B1083404F0070080B104F00700A6
:10225000C0F10800044404F0070008B9012000E0C0
:10226000002020B9BF2232A13BA0FFF771F9002C5A
:1022700047D03D480068844243D83C4E304605680C
:1022800001E02E462D686868A04202D22868002826
:10229000F7D125480068854233D0306800F108083E
:1022A000286830606868001B102813D92F1907F0C0
:1022B000070008B9012000E0002020B9EC221CA191
:1022C00025A0FFF745F96868001B78606C60384608
:1022D000FFF708FD244968680968081A2249086060
:1022E0000846006822490968884203D21E480068EF
:1022F0001F4908600D496868096808436860002044
:10230000286001F051FA08F0070008B9012000E048
:10231000002028B94FF4967205A10FA0FFF718F915
:102320004046BDE8F0810000700000207C000020E5
:102330002E2E5C4672656552544F535C706F7274FA
:1023400061626C655C4D656D4D616E675C68656171
:10235000705F342E630000004572726F723A25730D
:102360002C25640D0A000000740000206800002085
:10237000780000200648006830B10549096801F17D
:102380004800896C491C01600148006870470000E2
:1023900018000020001F4FF080730360001F21F021
:1023A00001030360001F034B0360143802602038F0
:1023B00070470000192100081CB5044600F086F89B
:1023C0001348012100233222CDE9001011A1144845
:1023D00001F02EF81348192100234FF48072CDE943
:1023E00000100CA1104801F023F810481A21002316
:1023F0004FF48072CDE9001006A10D4801F018F8E5
:102400000C48006800F07EFA00F0A4F81CBD000043
:10241000A80000204C45445F7461736B000000000D
:10242000090C0008AC0000202D0C0008B0000020B2
:10243000650900080000002001460A69D1E9013061
:102440009860D1E9010358605068884201D18868DA
:102450005060002008611068401E106010687047CE
:1024600000F1080141604FF0FF31816000F1080187
:10247000C160016100210160704700210161704766
:1024800010B502460B685C1C0CB9106907E002F13C
:10249000080000E04068446824689C42FAD9446817
:1024A0004C604C68A160886041600A611468641CDB
:1024B000146010BD42684A6093688B6093685960ED
:1024C0009160086103685B1C0360704710B500BF32
:1024D000502080F31188BFF34F8FBFF36F8F00BF81
:1024E0000B480068401C0A4908600846006801283B
:1024F0000DD108480068C0B208B9012000E00020F2
:1025000028B94FF4BD7204A10EA0FFF721F810BD49
:102510008000002004ED00E02E2E5C4672656552BE
:10252000544F535C706F727461626C655C525644B8
:10253000535C41524D5F434D335C706F72742E6338
:10254000000000004572726F723A25732C25640DED
:102550000A00000010B50B48006828B940F281124B
:1025600009A114A0FEF7F4FF06480068401E0549C3
:1025700008600846006820B9002080F3118800BF79
:1025800000BF10BD800000202E2E5C467265655293
:10259000544F535C706F727461626C655C52564448
:1025A000535C41524D5F434D335C706F72742E63C8
:1025B000000000004572726F723A25732C25640D7D
:1025C0000A00000070B506463546002E35D0083D9D
:1025D0002C461A4960680968084008B1012000E0EB
:1025E000002028B94FF4A07215A11FA0FEF7B0FF7C
:1025F000206808B9012000E0002028B940F241120B
:102600000FA119A0FEF7A4FF0C49606809680840F3
:1026100098B1206888B90949606809688843606092
:1026200000F028FB144960680968084412490860F2
:102630002046FFF757FB01F0B7F870BD7C00002083
:102640002E2E5C4672656552544F535C706F7274E7
:1026500061626C655C4D656D4D616E675C6865615E
:10266000705F342E630000004572726F723A2573FA
:102670002C25640D0A000000740000200648006844
:102680004FF47A71B0FBF1F0401E4FF0E021486149
:1026900007200861704700000400002070B5FDF7B6
:1026A00079FD0546102D11D305F1E02090F8F04397
:1026B00010480078844201DB012000E0002028B9A6
:1026C0004FF42A720CA117A0FEF742FF19480068C8
:1026D00000F4E06018490968884201D8012000E050
:1026E000002028B94FF42E7203A10EA0FEF730FF90
:1026F00070BD0000840000202E2E5C46726565527D
:10270000544F535C706F727461626C655C525644D6
:10271000535C41524D5F434D335C706F72742E6356
:10272000000000004572726F723A25732C25640D0B
:102730000A0000000CED00E08800002002460020A6
:102740000BE0084B53F8303033B9064B43F83010E8
:1027500003EBC0035A6002E0401C0828F1D300BF1D
:1027600070470000B80000202DE9F04105460E46F4
:1027700017462C46FFF7AAFE94F94400401C10B9F6
:10278000002084F8440094F94500401C10B9002052
:1027900084F84500FFF7DEFEA06B28B93A463146C3
:1027A00004F1240000F064F92046FFF7FAFCBDE8CC
:1027B000F081000070B504460025ACB10F480068F8
:1027C00008B9012000E0002028B940F2CF420CA156
:1027D00010A0FEF7BDFE00F04DFA00212046FFF7E5
:1027E0000BF800F0E1FF05463DB94FF080500D4970
:1027F0000860BFF34F8FBFF36F8F70BD5000002094
:102800002E2E5C4672656552544F535C7461736B37
:10281000732E63004572726F723A25732C25640D16
:102820000A00000004ED00E02DE9F04704460F46E1
:102830004FF000092CB940F2794226A12AA0FEF7F8
:1028400087FE0FB1012000E0002028B940F27A4253
:1028500020A125A0FEF77CFE2748006808B90120CA
:1028600000E0002028B940F27B421AA11EA0FEF72A
:102870006FFE00F0FFF9214806682068C51920683E
:10288000B04207D92068A8420BD9B54209D94FF008
:10289000010906E02068A84201D8B54201D94FF0ED
:1028A00001092560B9F1000F03D0A81B0021FEF734
:1028B000A3FF00F079FF8046B8F1000F07D14FF079
:1028C00080500F490860BFF34F8FBFF36F8FBDE893
:1028D000F08700002E2E5C4672656552544F535CA3
:1028E0007461736B732E63004572726F723A257355
:1028F0002C25640D0A000000500000202C00002050
:1029000004ED00E070B50546FFF7E0FD15B92D4870
:10291000006800E028460446201DFFF78DFD78B9C9
:10292000E06A00EB8000284951F8200040B994F893
:102930002C10012088402549096881432348016003
:10294000A06A18B104F11800FFF776FD204800686E
:10295000401C1F4908601B480068844209D1211DA2
:102960001C48FFF7A7FD1C480068401C1A49086076
:1029700009E01A480068401E184908602046FFF721
:1029800098F8FFF73BFBFFF7E5FD15480068C0B17D
:102990000C480068844214D11248006808B901202C
:1029A00000E0002028B940F265420FA113A0FEF715
:1029B000CFFD4FF0805015490860BFF34F8FBFF334
:1029C0006F8F70BD18000020F8000020300000203C
:1029D00044000020B4030020240000202800002030
:1029E00034000020500000202E2E5C467265655297
:1029F000544F535C7461736B732E63004572726F36
:102A0000723A25732C25640D0A00000004ED00E0E5
:102A100001200149086070473C00002070B5044661
:102A20000D462CB940F6063207A10CA0FEF790FD2A
:102A30000E48016818312046FFF722FD0121284683
:102A4000FEF7DAFE70BD00002E2E5C467265655200
:102A5000544F535C7461736B732E63004572726FD5
:102A6000723A25732C25640D0A000000180000201E
:102A700070B505460E4614462DB940F6313209A10F
:102A80000DA0FEF765FD1048016818312846FFF7D4
:102A900011FD0CB14FF0FF3621463046FEF7ACFE7B
:102AA00070BD00002E2E5C4672656552544F535C1B
:102AB0007461736B732E63004572726F723A257383
:102AC0002C25640D0A0000001800002070B5054692
:102AD0002C46002D4BD02649E06A0968C96A884215
:102AE00045D2A06900F0004028B921480068C06ABA
:102AF000C0F12000A061E16A01EB81011D4A02EBF7
:102B000081016069884201D1012000E0002050B3BA
:102B1000201DFFF791FC78B9E06A00EB80001549B1
:102B200051F8200040B994F82C1001208840124937
:102B300009688143104801600D480068C06AE0627E
:102B400094F82C10012088400B49096808430A4971
:102B50000860E16A01EB8101064A02EB8100211D58
:102B6000FFF7A8FC03E002480068C06AE06270BD9D
:102B700018000020F80000203000002010B50446A6
:102B80002CB940F6C13205A109A0FEF7E1FC0C48C2
:102B9000006820600B480068606010BD2E2E5C4607
:102BA00072656552544F535C7461736B732E63008E
:102BB0004572726F723A25732C25640D0A0000006D
:102BC000400000202C0000201CB51A4800210B46B4
:102BD0008222CDE9001018A1194800F029FC044612
:102BE000012C02D100F070FE0446012C15D100BF6B
:102BF000502080F31188BFF34F8FBFF36F8F00BF5A
:102C00004FF0FF300F49086001200F490860002095
:102C10000E49086000F08AF80BE0601C08B1012042
:102C200000E0002028B940F2847209A10DA0FEF74F
:102C30008FFC1CBD4C00002049444C4500000000A6
:102C4000691B000848000020340000202C000020F0
:102C50002E2E5C4672656552544F535C7461736BE3
:102C6000732E63004572726F723A25732C25640DC2
:102C70000A00000002480068401C014908607047D3
:102C80005000002010B51B48006818B101201A49F7
:102C900008602DE000201849086018480068B0FA64
:102CA00080F0C0F11F0404EB8400154951F82000A6
:102CB00008B1012000E0002028B940F6F62211A159
:102CC00015A0FEF745FC04EB84010D4A02EB8100E0
:102CD00041684968416000F1080142688A4202D1B6
:102CE0004168496841604168C9680F4A116000BF86
:102CF00010BD0000500000203C00002030000020EB
:102D0000F80000202E2E5C4672656552544F535CCD
:102D10007461736B732E63004572726F723A257320
:102D20002C25640D0A000000180000201CB5224864
:102D3000014609780191FF21024611700146097888
:102D400000919DF8001001F050011C4A11700721FC
:102D50001B4A116009E01A490968491E184A1160A6
:102D60009DF800104906090E00919DF8001001F031
:102D700080018029EFD0124909680902104A1160C8
:102D80001146098801F4E06111600B4A0199117044
:102D90000C48006840F470000A4908600846006862
:102DA00040F070400860FFF769FC002006490860A9
:102DB000FDF7BAF900201CBD00E400E0840000200B
:102DC0008800002020ED00E08000002010B500BF4A
:102DD000502080F31188BFF34F8FBFF36F8F00BF78
:102DE00000F06CFB18B14FF080500449086000BF40
:102DF000002080F3118800BF10BD000004ED00E04A
:102E00002DE9F84305460E4690460DB1012000E03D
:102E1000002028B94FF4C4720DA112A0FEF798FB50
:102E20000EB9002701E005FB06F707F14800FFF7A0
:102E3000F7F9044644B104F1480943464A4631468D
:102E400028460094FEF7A4FE2046BDE8F883000063
:102E50002E2E5C4672656552544F535C71756575D4
:102E6000652E63004572726F723A25732C25640DCE
:102E70000A0000002DE9FF4782B005460E461F46B6
:102E80004FF0000A2C462CB940F2DC4261A166A04A
:102E9000FEF75EFB0EB9206C08B9012000E00020AF
:102EA00028B940F2DD425BA15FA0FEF751FB00F0C4
:102EB000EFFA08B9049808B9012000E0002028B909
:102EC0004FF49C6253A158A0FEF742FB00BFFFF7EE
:102ED000FDFAD4F83890B9F1000F3DD0D4F80C8049
:102EE00031462046FEF792FDDFB9A9F10100A0634B
:102EF000206810B9FFF73EFA6060206908B9012028
:102F000000E0002010BB04F1100000F0F3FBE8B17A
:102F10004FF0805048490860BFF34F8FBFF36F8F69
:102F200014E0C4F80C80606A08B9012000E00020B9
:102F300060B904F1240000F0DDFB38B14FF080509F
:102F40003D490860BFF34F8FBFF36F8FFFF702FB60
:102F5000012006B0BDE8F087049818B9FFF7FAFA27
:102F60000020F6E7BAF1000F04D16846FFF706FE2D
:102F70004FF0010AFFF7EEFAFFF77CFEFFF7A6FA23
:102F800094F94400401C10B9002084F8440094F9DE
:102F90004500401C10B9002084F84500FFF7DAFA1C
:102FA00004A9684600F0F4F940BB2046FEF7FAFE9B
:102FB000F0B1206830B9FFF789FA6068FFF786FD45
:102FC000FFF7C8FA04F124000499FFF727FD204613
:102FD000FFF7E7F800F0E8FB00287FF478AF4FF048
:102FE000805015490860BFF34F8FBFF36F8F6EE7B6
:102FF0002046FFF7D6F800F0D7FB68E72046FFF73A
:10300000D0F800F0D1FB2046FEF7CCFE0028EED031
:1030100000209EE72E2E5C4672656552544F535C2D
:1030200071756575652E63004572726F723A25730E
:103030002C25640D0A00000004ED00E070B5054683
:103040000E462C462CB940F21B121EA122A0FEF700
:103050007FFAFFF73BFAD4E90F12206801FB020068
:1030600060600020A0632068A060E06B401E226CBE
:10307000216800FB0210E060FF2084F8440084F81F
:1030800045009EB9206908B9012000E00020A8B9D8
:1030900004F1100000F02EFB80B14FF08050124977
:1030A0000860BFF34F8FBFF36F8F07E004F110008C
:1030B000FFF7D6F904F12400FFF7D2F9FFF74AFA37
:1030C000012070BD2E2E5C4672656552544F535CD4
:1030D00071756575652E63004572726F723A25735E
:1030E0002C25640D0A00000004ED00E02DE9FF43EB
:1030F00083B0064688461D464FF0000934462CB979
:1031000040F2D92258A15DA0FEF722FAB8F1000FD3
:1031100001D1206C08B9012000E0002028B940F25C
:10312000DA2251A155A0FEF713FA022D02D1E06B6D
:10313000012801D1012000E0002028B940F2DB2263
:1031400049A14EA0FEF704FA00F0A2F908B90598CB
:1031500008B9012000E0002028B940F2DE2242A197
:1031600046A0FEF7F5F900BFFFF7B0F9A06BE16BE1
:10317000884201D3022D28D12A4641462046FEF737
:103180005AFC0746606A08B9012000E0002068B9CF
:1031900004F1240000F0AEFA88B14FF080503B49B2
:1031A0000860BFF34F8FBFF36F8F08E03FB14FF060
:1031B000805036490860BFF34F8FBFF36F8FFFF722
:1031C000C9F9012007B0BDE8F083059818B9FFF7E9
:1031D000C1F90020F6E7B9F1000F04D101A8FFF70B
:1031E000CDFC4FF00109FFF7B5F9FFF743FDFFF7FD
:1031F0006DF994F94400401C10B9002084F8440093
:1032000094F94500401C10B9002084F84500FFF7F0
:10321000A1F905A901A800F0BBF8F0B92046FEF716
:10322000CEFDA0B104F110000599FFF7F7FB204691
:10323000FEF7B7FF00F0B8FA002895D14FF08050A4
:1032400012490860BFF34F8FBFF36F8F8CE72046A2
:10325000FEF7A7FF00F0A8FA86E72046FEF7A1FFD9
:1032600000F0A2FA0020ADE72E2E5C467265655292
:10327000544F535C71756575652E63004572726FAE
:10328000723A25732C25640D0A00000004ED00E05D
:103290002DE9F05F07468A4690461E463C462CB90B
:1032A00040F29F3231A136A0FEF752F9BAF1000F79
:1032B00001D1206C08B9012000E0002028B94FF4AA
:1032C00068722AA12EA0FEF743F9022E02D1E06B0C
:1032D000012801D1012000E0002028B940F2A132EC
:1032E00022A127A0FEF734F9FFF7D8F900BF50213B
:1032F000EFF3118081F31188BFF34F8FBFF36F8F0E
:1033000000BF0546A06BE16B884201D3022E23D19A
:1033100094F945B0324651462046FEF78CFB0BF13E
:10332000010088B9606A08B9012000E0002080B976
:1033300004F1240000F0DEF958B1B8F1000F08D014
:103340000120C8F8000004E00BF1010040B284F84D
:1033500045004FF0010901E04FF0000900BF85F37F
:10336000118800BF4846BDE8F09F00002E2E5C4645
:1033700072656552544F535C71756575652E6300B7
:103380004572726F723A25732C25640D0A00000095
:103390002DE9F04104460D462CB940F6CB3219A177
:1033A0001DA0FEF7D5F82DB940F6CC3215A11AA014
:1033B000FEF7CEF8FFF78AF81B4807682868401C1C
:1033C00008B9002619E0194920680968884204D024
:1033D0006068B84201D801260FE06068381A296891
:1033E000884209D228686168791A401A2860204604
:1033F000FFF7C4FB002600E00126FFF7ABF83046DC
:10340000BDE8F0812E2E5C4672656552544F535CC8
:103410007461736B732E63004572726F723A257319
:103420002C25640D0A0000002C0000204000002024
:103430002DE9FF4F85B0804689461746DDE912AB7E
:10344000B800FEF7EDFE064656B15420FEF7E8FE42
:1034500004460CB1266304E03046FFF7B3F800E001
:1034600000247CB10020CDE900ABCDE902403A4612
:1034700049464046089BFEF79FFB2046FEF708FAA8
:10348000012501E04FF0FF35284609B0BDE8F08F77
:103490000549096809B9012005E00449096809B925
:1034A000022000E00020704734000020500000207F
:1034B00001490868704700002C0000202DE9F04108
:1034C0004FF0000841480068002872D14048006869
:1034D000451C3F480560EDB93E480068006808B9E2
:1034E000012000E0002028B940F6D9123AA13FA0FF
:1034F000FEF72EF8374807684048006835490860ED
:103500003E4807603E480068401C3D490860FEF7A1
:1035100075FD00BF3B48006885423CD300BF2D4885
:103520000068006808B9012000E0002020B14FF0D9
:10353000FF30344908602DE026480068C068C46840
:103540006668B54202D22F48066023E0201DFEF7D0
:1035500073FFA06A18B104F11800FEF76DFF94F82C
:103560002C10012088402849096808432649086032
:10357000E16A01EB8101254A02EB8100211DFEF782
:1035800099FF2349E06A0968C96A8842C7D34FF0A6
:103590000108C4E700BF1E480068C06A00EB800055
:1035A0001A4951F82000012801D94FF0010805E01F
:1035B000FFE718480068401C164908601648006874
:1035C00008B14FF001084046BDE8F08150000020EE
:1035D0002C0000201C0000202E2E5C4672656552D7
:1035E000544F535C7461736B732E63004572726F3A
:1035F000723A25732C25640D0A000000200000207B
:10360000400000204800002030000020F80000208A
:1036100018000020380000203C00002070B505464E
:103620002C460026002D4BD026480068844201D14C
:10363000012000E0002028B940F6C76222A127A09F
:10364000FDF786FFA06C28B940F6C9621EA123A031
:10365000FDF77EFFA06C401EA064616CE06A8842AA
:103660002ED0A06C60BB201DFEF7E6FE78B9E06AA4
:1036700000EB80001D4951F8200040B994F82C104F
:10368000012088401A490968814319480160606C2B
:10369000E062E06AC0F12000A06194F82C100120E3
:1036A000884013490968084311490860E16A01EB41
:1036B00081010E4A02EB8100211DFEF7FBFE01266F
:1036C000304670BD180000202E2E5C467265655293
:1036D000544F535C7461736B732E63004572726F49
:1036E000723A25732C25640D0A000000F8000020B2
:1036F0003000002070B50646F068C4682CB940F66A
:1037000061321AA11EA0FDF723FF04F11800FEF795
:1037100093FE1F480068A8B9201DFEF78DFE94F89F
:103720002C10012088401B4909680843194908608A
:10373000E16A01EB8101184A02EB8100211DFEF7CD
:10374000B9FE04E004F118011448FEF7B3FE144971
:10375000E06A0968C96A884204D901250120114933
:10376000086000E00025284670BD00002E2E5C4653
:1037700072656552544F535C7461736B732E6300B2
:103780004572726F723A25732C25640D0A00000091
:103790005000002030000020F8000020A00300208E
:1037A000180000203C00002070B50024002634489A
:1037B000006828B94FF4FD6232A137A0FDF7C8FEBA
:1037C000FEF784FE2E480068401E2D49086008461A
:1037D000006800284FD13448006800284BD024E00E
:1037E0003248C068C46804F11800FEF725FE201DA9
:1037F000FEF722FE94F82C10012088402C4909681D
:1038000008432B490860E16A01EB8101294A02EB78
:103810008100211DFEF74EFE2749E06A0968C96A4A
:10382000884202D30120254908602048006808B971
:10383000012000E000200028D2D00CB1FEF7DEFB12
:103840001F48056865B100BFFFF738FE10B10120C1
:103850001A4908606D1E002DF6D100201849086035
:103860001648006838B10126300716490860BFF3D2
:103870004F8FBFF36F8FFEF76DFE304670BD0000B7
:10388000500000202E2E5C4672656552544F535CEA
:103890007461736B732E63004572726F723A257395
:1038A0002C25640D0A00000028000020A003002041
:1038B00030000020F8000020180000203C0000200C
:1038C0003800002004ED00E01CB50024FEF73AF8B3
:1038D0000B48006858B10B481F2100234FF4827237
:1038E000CDE9001008A10A48FFF7A2FD04462CB953
:1038F00040F2331207A10DA0FDF72AFE20461CBDA1
:103900005C00002060000020546D7220537663003C
:10391000892100082E2E5C4672656552544F535C17
:1039200074696D6572732E63000000004572726FDA
:10393000723A25732C25640D0A0000002DE9FF471B
:1039400004460D4616461F46DDF830804FF000094C
:103950002CB94FF4D37217A11CA0FDF7F9FD1F4835
:10396000006810B3009501960294062D15DAFFF752
:103970008FFD022808D10023424669461748006897
:10398000FFF7B4FB814610E000231A46694613484E
:103990000068FFF7ABFB814607E000233A46694623
:1039A0000E480068FFF774FC8146484604B0BDE845
:1039B000F08700002E2E5C4672656552544F535CB2
:1039C00074696D6572732E63000000004572726F3A
:1039D000723A25732C25640D0A0000005C0000205B
:1039E000003A000800000020B80000007015000830
:1039F000B83A0008B8000020A82F00008015000881
:103A00000000000000A24A040000000000000000C6
:103A1000010203040607080900000000000000007E
:103A20000000000000000000000000000000000096
:103A30000000000000000000000000000000000086
:103A40000000000000000000000000000000000076
:103A50000000000000000000000000000000000066
:103A60000000000000000000000000000000000056
:103A70000000000000000000000000000000000046
:103A8000AAAAAAAA0000000000000000000000008E
:103A900001020304010203040607080902040608E0
:103AA0000000000000000000000000000000000016
:083AB00000000000000000000E
:04000005080000ED02
:00000001FF
